{
  "_format": "hh-sol-artifact-1",
  "contractName": "RWAYieldVault",
  "sourceName": "contracts/RWAYieldVault.sol",
  "abi": [
    {
      "inputs": [],
      "name": "APY",
      "outputs": [
        {
          "internalType": "uint256",
          "name": "",
          "type": "uint256"
        }
      ],
      "stateMutability": "view",
      "type": "function"
    },
    {
      "inputs": [],
      "name": "SECONDS_PER_YEAR",
      "outputs": [
        {
          "internalType": "uint256",
          "name": "",
          "type": "uint256"
        }
      ],
      "stateMutability": "view",
      "type": "function"
    },
    {
      "inputs": [
        {
          "internalType": "address",
          "name": "",
          "type": "address"
        }
      ],
      "name": "balances",
      "outputs": [
        {
          "internalType": "uint256",
          "name": "",
          "type": "uint256"
        }
      ],
      "stateMutability": "view",
      "type": "function"
    },
    {
      "inputs": [],
      "name": "claimYield",
      "outputs": [],
      "stateMutability": "nonpayable",
      "type": "function"
    },
    {
      "inputs": [],
      "name": "deposit",
      "outputs": [],
      "stateMutability": "payable",
      "type": "function"
    },
    {
      "inputs": [
        {
          "internalType": "address",
          "name": "",
          "type": "address"
        }
      ],
      "name": "lastUpdate",
      "outputs": [
        {
          "internalType": "uint256",
          "name": "",
          "type": "uint256"
        }
      ],
      "stateMutability": "view",
      "type": "function"
    },
    {
      "inputs": [
        {
          "internalType": "address",
          "name": "user",
          "type": "address"
        }
      ],
      "name": "pendingYield",
      "outputs": [
        {
          "internalType": "uint256",
          "name": "",
          "type": "uint256"
        }
      ],
      "stateMutability": "view",
      "type": "function"
    },
    {
      "inputs": [
        {
          "internalType": "uint256",
          "name": "amount",
          "type": "uint256"
        }
      ],
      "name": "withdraw",
      "outputs": [],
      "stateMutability": "nonpayable",
      "type": "function"
    },
    {
      "stateMutability": "payable",
      "type": "receive"
    }
  ],
  "bytecode": "0x608060405234801561001057600080fd5b50610bec806100206000396000f3fe60806040526004361061007f5760003560e01c8063cb03fb1e1161004e578063cb03fb1e14610145578063d0e30db014610182578063e6a69ab81461018c578063ef8bd305146101b757610086565b806327e235e31461008b5780632e1a7d4d146100c8578063406cf229146100f1578063c7bf19801461010857610086565b3661008657005b600080fd5b34801561009757600080fd5b506100b260048036038101906100ad9190610750565b6101e2565b6040516100bf9190610796565b60405180910390f35b3480156100d457600080fd5b506100ef60048036038101906100ea91906107dd565b6101fa565b005b3480156100fd57600080fd5b50610106610389565b005b34801561011457600080fd5b5061012f600480360381019061012a9190610750565b6104cd565b60405161013c9190610796565b60405180910390f35b34801561015157600080fd5b5061016c60048036038101906101679190610750565b610596565b6040516101799190610796565b60405180910390f35b61018a6105ae565b005b34801561019857600080fd5b506101a1610651565b6040516101ae9190610796565b60405180910390f35b3480156101c357600080fd5b506101cc610659565b6040516101d99190610796565b60405180910390f35b60006020528060005260406000206000915090505481565b806000803373ffffffffffffffffffffffffffffffffffffffff1673ffffffffffffffffffffffffffffffffffffffff16815260200190815260200160002054101561027b576040517f08c379a000000000000000000000000000000000000000000000000000000000815260040161027290610867565b60405180910390fd5b6102843361065e565b806000803373ffffffffffffffffffffffffffffffffffffffff1673ffffffffffffffffffffffffffffffffffffffff16815260200190815260200160002060008282546102d291906108b6565b9250508190555060003373ffffffffffffffffffffffffffffffffffffffff16826040516102ff9061091b565b60006040518083038185875af1925050503d806000811461033c576040519150601f19603f3d011682016040523d82523d6000602084013e610341565b606091505b5050905080610385576040517f08c379a000000000000000000000000000000000000000000000000000000000815260040161037c9061097c565b60405180910390fd5b5050565b6000610394336104cd565b9050600081116103d9576040517f08c379a00000000000000000000000000000000000000000000000000000000081526004016103d0906109e8565b60405180910390fd5b42600160003373ffffffffffffffffffffffffffffffffffffffff1673ffffffffffffffffffffffffffffffffffffffff1681526020019081526020016000208190555060003373ffffffffffffffffffffffffffffffffffffffff16826040516104439061091b565b60006040518083038185875af1925050503d8060008114610480576040519150601f19603f3d011682016040523d82523d6000602084013e610485565b606091505b50509050806104c9576040517f08c379a00000000000000000000000000000000000000000000000000000000081526004016104c090610a54565b60405180910390fd5b5050565b600080600160008473ffffffffffffffffffffffffffffffffffffffff1673ffffffffffffffffffffffffffffffffffffffff168152602001908152602001600020544261051b91906108b6565b90506301e13380606461052e9190610a74565b8160056000808773ffffffffffffffffffffffffffffffffffffffff1673ffffffffffffffffffffffffffffffffffffffff1681526020019081526020016000205461057a9190610a74565b6105849190610a74565b61058e9190610ae5565b915050919050565b60016020528060005260406000206000915090505481565b600034116105f1576040517f08c379a00000000000000000000000000000000000000000000000000000000081526004016105e890610b62565b60405180910390fd5b6105fa3361065e565b346000803373ffffffffffffffffffffffffffffffffffffffff1673ffffffffffffffffffffffffffffffffffffffff16815260200190815260200160002060008282546106489190610b82565b92505081905550565b6301e1338081565b600581565b6000600160008373ffffffffffffffffffffffffffffffffffffffff1673ffffffffffffffffffffffffffffffffffffffff16815260200190815260200160002054036106ea5742600160008373ffffffffffffffffffffffffffffffffffffffff1673ffffffffffffffffffffffffffffffffffffffff168152602001908152602001600020819055505b50565b600080fd5b600073ffffffffffffffffffffffffffffffffffffffff82169050919050565b600061071d826106f2565b9050919050565b61072d81610712565b811461073857600080fd5b50565b60008135905061074a81610724565b92915050565b600060208284031215610766576107656106ed565b5b60006107748482850161073b565b91505092915050565b6000819050919050565b6107908161077d565b82525050565b60006020820190506107ab6000830184610787565b92915050565b6107ba8161077d565b81146107c557600080fd5b50565b6000813590506107d7816107b1565b92915050565b6000602082840312156107f3576107f26106ed565b5b6000610801848285016107c8565b91505092915050565b600082825260208201905092915050565b7f496e73756666696369656e742062616c616e6365000000000000000000000000600082015250565b600061085160148361080a565b915061085c8261081b565b602082019050919050565b6000602082019050818103600083015261088081610844565b9050919050565b7f4e487b7100000000000000000000000000000000000000000000000000000000600052601160045260246000fd5b60006108c18261077d565b91506108cc8361077d565b92508282039050818111156108e4576108e3610887565b5b92915050565b600081905092915050565b50565b60006109056000836108ea565b9150610910826108f5565b600082019050919050565b6000610926826108f8565b9150819050919050565b7f455448207472616e73666572206661696c656400000000000000000000000000600082015250565b600061096660138361080a565b915061097182610930565b602082019050919050565b6000602082019050818103600083015261099581610959565b9050919050565b7f4e6f207969656c6420617661696c61626c650000000000000000000000000000600082015250565b60006109d260128361080a565b91506109dd8261099c565b602082019050919050565b60006020820190508181036000830152610a01816109c5565b9050919050565b7f5969656c64207472616e73666572206661696c65640000000000000000000000600082015250565b6000610a3e60158361080a565b9150610a4982610a08565b602082019050919050565b60006020820190508181036000830152610a6d81610a31565b9050919050565b6000610a7f8261077d565b9150610a8a8361077d565b9250828202610a988161077d565b91508282048414831517610aaf57610aae610887565b5b5092915050565b7f4e487b7100000000000000000000000000000000000000000000000000000000600052601260045260246000fd5b6000610af08261077d565b9150610afb8361077d565b925082610b0b57610b0a610ab6565b5b828204905092915050565b7f4465706f736974206d757374206265203e203000000000000000000000000000600082015250565b6000610b4c60138361080a565b9150610b5782610b16565b602082019050919050565b60006020820190508181036000830152610b7b81610b3f565b9050919050565b6000610b8d8261077d565b9150610b988361077d565b9250828201905080821115610bb057610baf610887565b5b9291505056fea2646970667358221220611580d952be246fac57f86b961c8ec83aeebe618b56f2e2b436126b143f0d1664736f6c63430008140033",
  "linkReferences": {},
  "deployedLinkReferences": {}
}